{
  "contractName": "Adoption",
  "abi": [
    {
      "constant": false,
      "inputs": [
        {
          "name": "eventId",
          "type": "uint256"
        },
        {
          "name": "eventQuota",
          "type": "uint256"
        }
      ],
      "name": "subscribe",
      "outputs": [
        {
          "name": "",
          "type": "uint256"
        }
      ],
      "payable": true,
      "stateMutability": "payable",
      "type": "function"
    },
    {
      "constant": false,
      "inputs": [
        {
          "name": "eventId",
          "type": "uint256"
        }
      ],
      "name": "unscribe",
      "outputs": [],
      "payable": true,
      "stateMutability": "payable",
      "type": "function"
    },
    {
      "constant": true,
      "inputs": [],
      "name": "getEventId",
      "outputs": [
        {
          "name": "",
          "type": "uint256"
        }
      ],
      "payable": false,
      "stateMutability": "view",
      "type": "function"
    }
  ],
  "bytecode": "0x608060405234801561001057600080fd5b506102af806100206000396000f300608060405260043610610057576000357c0100000000000000000000000000000000000000000000000000000000900463ffffffff1680634a17bbde1461005c5780638437081314610087578063cedec1c9146100c5575b600080fd5b34801561006857600080fd5b506100716100e5565b6040518082815260200191505060405180910390f35b6100af600480360381019080803590602001909291908035906020019092919050505061012b565b6040518082815260200191505060405180910390f35b6100e3600480360381019080803590602001909291905050506101cf565b005b60008060003373ffffffffffffffffffffffffffffffffffffffff1673ffffffffffffffffffffffffffffffffffffffff16815260200190815260200160002054905090565b60008160016000858152602001908152602001600020541115151561014f57600080fd5b826000803373ffffffffffffffffffffffffffffffffffffffff1673ffffffffffffffffffffffffffffffffffffffff168152602001908152602001600020819055506001806000858152602001908152602001600020600082825401925050819055506001600084815260200190815260200160002054905092915050565b806000803373ffffffffffffffffffffffffffffffffffffffff1673ffffffffffffffffffffffffffffffffffffffff1681526020019081526020016000205414151561021b57600080fd5b60008060003373ffffffffffffffffffffffffffffffffffffffff1673ffffffffffffffffffffffffffffffffffffffff16815260200190815260200160002081905550600180600083815260200190815260200160002060008282540392505081905550505600a165627a7a723058201cc0d58f5183859c19e2cbd2a9c12a1327ade15ca54460a6364d10d364db6aba0029",
  "source": "pragma solidity ^0.4.17;\n\n/**\nContract that will handle the registrations of participants in a conference.\n*/\ncontract Adoption {\n    mapping(address => uint) registrants;\n    mapping(uint => uint) numRegistrants;\n\n    /**\n    @notice function that will subscribe the contract to an event if not exceed the quota.\n    @param eventId the ID of the given event.\n    @param eventQuota the maximum number that can be registered.\n    */\n    function subscribe(uint eventId, uint eventQuota) public payable returns (uint) {\n          require(numRegistrants[eventId] <= eventQuota);\n          registrants[msg.sender] = eventId;\n          numRegistrants[eventId] += 1;\n          return numRegistrants[eventId];\n    }\n\n    /**\n    @notice function that will unsubscribe the contract from the event.\n    @param eventId id of the event.\n    */\n    function unscribe(uint eventId) public payable {\n        require(registrants[msg.sender] == eventId);\n        registrants[msg.sender] = 0;\n        numRegistrants[eventId] -= 1;\n    }\n\n   /**\n   @notice function that return the id of the event that the contract is subscribed.\n   @return the id of the event.\n   */\n    function getEventId() public view returns (uint) {\n        return registrants[msg.sender];\n    }\n\n}\n",
  "sourcePath": "/home/catatau/Documents/pet-shop-tutorial/contracts/Adoption.sol",
  "compiler": {
    "name": "solc",
    "version": "0.4.24+commit.e67f0147.Emscripten.clang"
  },
  "schemaVersion": "2.0.0",
  "updatedAt": "2018-06-23T22:50:15.491Z"
}